{
  "_format": "hh-sol-artifact-1",
  "contractName": "CrowdFunding",
  "sourceName": "contracts/CrowdFunding.sol",
  "abi": [
    {
      "inputs": [
        {
          "internalType": "uint256",
          "name": "",
          "type": "uint256"
        }
      ],
      "name": "campaigns",
      "outputs": [
        {
          "internalType": "address",
          "name": "owner",
          "type": "address"
        },
        {
          "internalType": "string",
          "name": "title",
          "type": "string"
        },
        {
          "internalType": "string",
          "name": "description",
          "type": "string"
        },
        {
          "internalType": "uint256",
          "name": "target",
          "type": "uint256"
        },
        {
          "internalType": "uint256",
          "name": "deadline",
          "type": "uint256"
        },
        {
          "internalType": "uint256",
          "name": "amountCollected",
          "type": "uint256"
        },
        {
          "internalType": "string",
          "name": "image",
          "type": "string"
        }
      ],
      "stateMutability": "view",
      "type": "function"
    },
    {
      "inputs": [
        {
          "internalType": "address",
          "name": "_owner",
          "type": "address"
        },
        {
          "internalType": "string",
          "name": "_title",
          "type": "string"
        },
        {
          "internalType": "string",
          "name": "_description",
          "type": "string"
        },
        {
          "internalType": "uint256",
          "name": "_target",
          "type": "uint256"
        },
        {
          "internalType": "uint256",
          "name": "_deadline",
          "type": "uint256"
        },
        {
          "internalType": "string",
          "name": "_image",
          "type": "string"
        }
      ],
      "name": "createCampaign",
      "outputs": [
        {
          "internalType": "uint256",
          "name": "",
          "type": "uint256"
        }
      ],
      "stateMutability": "nonpayable",
      "type": "function"
    },
    {
      "inputs": [
        {
          "internalType": "uint256",
          "name": "_id",
          "type": "uint256"
        }
      ],
      "name": "donateToCampaign",
      "outputs": [],
      "stateMutability": "payable",
      "type": "function"
    },
    {
      "inputs": [],
      "name": "getCampaigns",
      "outputs": [
        {
          "components": [
            {
              "internalType": "address",
              "name": "owner",
              "type": "address"
            },
            {
              "internalType": "string",
              "name": "title",
              "type": "string"
            },
            {
              "internalType": "string",
              "name": "description",
              "type": "string"
            },
            {
              "internalType": "uint256",
              "name": "target",
              "type": "uint256"
            },
            {
              "internalType": "uint256",
              "name": "deadline",
              "type": "uint256"
            },
            {
              "internalType": "uint256",
              "name": "amountCollected",
              "type": "uint256"
            },
            {
              "internalType": "string",
              "name": "image",
              "type": "string"
            },
            {
              "internalType": "address[]",
              "name": "donators",
              "type": "address[]"
            },
            {
              "internalType": "uint256[]",
              "name": "donations",
              "type": "uint256[]"
            }
          ],
          "internalType": "struct CrowdFunding.Campaign[]",
          "name": "",
          "type": "tuple[]"
        }
      ],
      "stateMutability": "view",
      "type": "function"
    },
    {
      "inputs": [
        {
          "internalType": "uint256",
          "name": "_id",
          "type": "uint256"
        }
      ],
      "name": "getDonators",
      "outputs": [
        {
          "internalType": "address[]",
          "name": "",
          "type": "address[]"
        },
        {
          "internalType": "uint256[]",
          "name": "",
          "type": "uint256[]"
        }
      ],
      "stateMutability": "view",
      "type": "function"
    },
    {
      "inputs": [],
      "name": "numberOfCampaigns",
      "outputs": [
        {
          "internalType": "uint256",
          "name": "",
          "type": "uint256"
        }
      ],
      "stateMutability": "view",
      "type": "function"
    },
    {
      "inputs": [
        {
          "internalType": "uint256",
          "name": "_id",
          "type": "uint256"
        }
      ],
      "name": "withdrawFunds",
      "outputs": [],
      "stateMutability": "payable",
      "type": "function"
    }
  ],
  "bytecode": "0x6080604052600060015534801561001557600080fd5b5061108c806100256000396000f3fe6080604052600436106100705760003560e01c8063155dd5ee1161004e578063155dd5ee146100ff57806342a4fda8146101145780639943e3a114610127578063a6b036331461014757600080fd5b806307ca140d146100755780630fa91fa91461009e578063141961bc146100cc575b600080fd5b34801561008157600080fd5b5061008b60015481565b6040519081526020015b60405180910390f35b3480156100aa57600080fd5b506100be6100b9366004610a78565b610169565b604051610095929190610a91565b3480156100d857600080fd5b506100ec6100e7366004610a78565b610238565b6040516100959796959493929190610b5b565b61011261010d366004610a78565b610415565b005b610112610122366004610a78565b610507565b34801561013357600080fd5b5061008b610142366004610c68565b6105c8565b34801561015357600080fd5b5061015c6106cb565b6040516100959190610d95565b600081815260208181526040918290206007810180548451818502810185019095528085526060948594929360080192909184918301828280156101d657602002820191906000526020600020905b81546001600160a01b031681526001909101906020018083116101b8575b505050505091508080548060200260200160405190810160405280929190818152602001828054801561022857602002820191906000526020600020905b815481526020019060010190808311610214575b5050505050905091509150915091565b600060208190529081526040902080546001820180546001600160a01b03909216929161026490610ea2565b80601f016020809104026020016040519081016040528092919081815260200182805461029090610ea2565b80156102dd5780601f106102b2576101008083540402835291602001916102dd565b820191906000526020600020905b8154815290600101906020018083116102c057829003601f168201915b5050505050908060020180546102f290610ea2565b80601f016020809104026020016040519081016040528092919081815260200182805461031e90610ea2565b801561036b5780601f106103405761010080835404028352916020019161036b565b820191906000526020600020905b81548152906001019060200180831161034e57829003601f168201915b50505050509080600301549080600401549080600501549080600601805461039290610ea2565b80601f01602080910402602001604051908101604052809291908181526020018280546103be90610ea2565b801561040b5780601f106103e05761010080835404028352916020019161040b565b820191906000526020600020905b8154815290600101906020018083116103ee57829003601f168201915b5050505050905087565b600081815260208190526040902080546001600160a01b031633146104955760405162461bcd60e51b815260206004820152602b60248201527f4f6e6c79207468652063616d706169676e206f776e65722063616e207769746860448201526a323930bb90333ab732399760a91b60648201526084015b60405180910390fd5b6005810154604051600090339083908381818185875af1925050503d80600081146104dc576040519150601f19603f3d011682016040523d82523d6000602084013e6104e1565b606091505b505090508015610501578183600501546104fb9190610eec565b60058401555b50505050565b600081815260208181526040808320600781018054600180820183559186528486200180546001600160a01b0319163317905560088201805491820181558552928420349301839055805491519293909290916001600160a01b03169084908381818185875af1925050503d806000811461059e576040519150601f19603f3d011682016040523d82523d6000602084013e6105a3565b606091505b505090508015610501578282600501546105bd9190610f05565b600583015550505050565b6001546000908152602081905260408120600481015442116106415760405162461bcd60e51b815260206004820152602c60248201527f54686520646561646c696e652073686f756c642062652061206461746520696e60448201526b103a343290333aba3ab9329760a11b606482015260840161048c565b80546001600160a01b0319166001600160a01b038916178155600181016106688882610f67565b50600281016106778782610f67565b506003810185905560048101849055600060058201556006810161069b8482610f67565b50600180549060006106ac83611027565b9190505550600180546106bf9190610eec565b98975050505050505050565b6060600060015467ffffffffffffffff8111156106ea576106ea610bc5565b60405190808252806020026020018201604052801561077357816020015b61076060405180610120016040528060006001600160a01b0316815260200160608152602001606081526020016000815260200160008152602001600081526020016060815260200160608152602001606081525090565b8152602001906001900390816107085790505b50905060005b600154811015610a7257600081815260208181526040918290208251610120810190935280546001600160a01b03168352600181018054919392849290840191906107c390610ea2565b80601f01602080910402602001604051908101604052809291908181526020018280546107ef90610ea2565b801561083c5780601f106108115761010080835404028352916020019161083c565b820191906000526020600020905b81548152906001019060200180831161081f57829003601f168201915b5050505050815260200160028201805461085590610ea2565b80601f016020809104026020016040519081016040528092919081815260200182805461088190610ea2565b80156108ce5780601f106108a3576101008083540402835291602001916108ce565b820191906000526020600020905b8154815290600101906020018083116108b157829003601f168201915b5050505050815260200160038201548152602001600482015481526020016005820154815260200160068201805461090590610ea2565b80601f016020809104026020016040519081016040528092919081815260200182805461093190610ea2565b801561097e5780601f106109535761010080835404028352916020019161097e565b820191906000526020600020905b81548152906001019060200180831161096157829003601f168201915b50505050508152602001600782018054806020026020016040519081016040528092919081815260200182805480156109e057602002820191906000526020600020905b81546001600160a01b031681526001909101906020018083116109c2575b5050505050815260200160088201805480602002602001604051908101604052809291908181526020018280548015610a3857602002820191906000526020600020905b815481526020019060010190808311610a24575b505050505081525050838381518110610a5357610a53611040565b6020026020010181905250508080610a6a90611027565b915050610779565b50919050565b600060208284031215610a8a57600080fd5b5035919050565b604080825283519082018190526000906020906060840190828701845b82811015610ad35781516001600160a01b031684529284019290840190600101610aae565b5050508381038285015284518082528583019183019060005b81811015610b0857835183529284019291840191600101610aec565b5090979650505050505050565b6000815180845260005b81811015610b3b57602081850181015186830182015201610b1f565b506000602082860101526020601f19601f83011685010191505092915050565b6001600160a01b038816815260e060208201819052600090610b7f90830189610b15565b8281036040840152610b918189610b15565b90508660608401528560808401528460a084015282810360c0840152610bb78185610b15565b9a9950505050505050505050565b634e487b7160e01b600052604160045260246000fd5b600082601f830112610bec57600080fd5b813567ffffffffffffffff80821115610c0757610c07610bc5565b604051601f8301601f19908116603f01168101908282118183101715610c2f57610c2f610bc5565b81604052838152866020858801011115610c4857600080fd5b836020870160208301376000602085830101528094505050505092915050565b60008060008060008060c08789031215610c8157600080fd5b86356001600160a01b0381168114610c9857600080fd5b9550602087013567ffffffffffffffff80821115610cb557600080fd5b610cc18a838b01610bdb565b96506040890135915080821115610cd757600080fd5b610ce38a838b01610bdb565b9550606089013594506080890135935060a0890135915080821115610d0757600080fd5b50610d1489828a01610bdb565b9150509295509295509295565b600081518084526020808501945080840160005b83811015610d5a5781516001600160a01b031687529582019590820190600101610d35565b509495945050505050565b600081518084526020808501945080840160005b83811015610d5a57815187529582019590820190600101610d79565b60006020808301818452808551808352604092508286019150828160051b87010184880160005b83811015610e9457888303603f19018552815180516001600160a01b0316845261012088820151818a870152610df482870182610b15565b9150508782015185820389870152610e0c8282610b15565b606084810151908801526080808501519088015260a0808501519088015260c080850151888303828a01529193509150610e468382610b15565b9250505060e08083015186830382880152610e618382610d21565b925050506101008083015192508582038187015250610e808183610d65565b968901969450505090860190600101610dbc565b509098975050505050505050565b600181811c90821680610eb657607f821691505b602082108103610a7257634e487b7160e01b600052602260045260246000fd5b634e487b7160e01b600052601160045260246000fd5b81810381811115610eff57610eff610ed6565b92915050565b80820180821115610eff57610eff610ed6565b601f821115610f6257600081815260208120601f850160051c81016020861015610f3f5750805b601f850160051c820191505b81811015610f5e57828155600101610f4b565b5050505b505050565b815167ffffffffffffffff811115610f8157610f81610bc5565b610f9581610f8f8454610ea2565b84610f18565b602080601f831160018114610fca5760008415610fb25750858301515b600019600386901b1c1916600185901b178555610f5e565b600085815260208120601f198616915b82811015610ff957888601518255948401946001909101908401610fda565b50858210156110175787850151600019600388901b60f8161c191681555b5050505050600190811b01905550565b60006001820161103957611039610ed6565b5060010190565b634e487b7160e01b600052603260045260246000fdfea26469706673582212207fc4bc0b994791d6edb23f8d5a485c165fe34e7151748101d73d3f1f8cb2367064736f6c63430008110033",
  "linkReferences": {},
  "deployedLinkReferences": {}
}